:020000040800F2
:1000000000000320F5050008D9050008DB050008FD
:10001000DD050008DF050008E1050008000000001C
:10002000000000000000000000000000E3050008E0
:10003000E505000800000000E7050008E9050008E4
:100040004506000845060008450600084506000864
:100050004506000845060008450600084506000854
:100060004506000845060008450600084506000844
:100070004506000845060008450600084506000834
:100080004506000845060008450600084506000824
:100090004506000845060008450600084506000814
:1000A0004506000845060008450600084506000804
:1000B00045060008450600084506000845060008F4
:1000C00045060008450600084506000845060008E4
:1000D00045060008450600084506000845060008D4
:1000E00045060008450600084506000845060008C4
:1000F00045060008450600084506000845060008B4
:1001000045060008450600084506000845060008A3
:100110004506000845060008450600084506000893
:100120004506000845060008450600084506000883
:100130004506000845060008450600084506000873
:100140004506000845060008450600084506000863
:100150004506000845060008450600084506000853
:100160004506000845060008450600084506000843
:100170004506000845060008450600080000000086
:100180004506000845060008450600084506000823
:100190004506000845060008450600084506000813
:0C01A00000000000000000004506000800
:1001AC0010B5054C237833B9044B13B10448AFF3A5
:1001BC0000800123237010BD1000002000000000FF
:1001CC00E40E000808B5034B1BB103490348AFF319
:1001DC00008008BD0000000014000020E40E0008A0
:1001EC0053B94AB9002908BF00281CBF4FF0FF3192
:1001FC004FF0FF3000F06AB9ADF1080C6DE904CE98
:10020C0000F006F8DDF804E0DDE9022304B07047E5
:10021C002DE9F047089D0C46002B4ED194468C4599
:10022C008646B2FA82F262D94AB1C2F120039140F9
:10023C0020FA03F30CFA02FC194300FA02FE4FEA0F
:10024C001C471FFA8CF6B1FBF7F44FEA1E4307FB71
:10025C00141143EA014304FB06F199420AD91CEB41
:10026C00030304F1FF3080F01281994240F20F81B8
:10027C00023C6344591A1FFA8EF3B1FBF7F007FBEB
:10028C00101143EA014300FB06F69E420AD91CEB0F
:10029C00030300F1FF3180F0FC809E4240F2F980B4
:1002AC00634402389B1B40EA044000211DB1D3403B
:1002BC000022C5E90032BDE8F0878B4205D90DB1AB
:1002CC00C5E9000100210846F5E7B3FA83F10029DE
:1002DC0046D1A34202D39042C0F0F080861A64EB60
:1002EC0003030120002DE6D0C5E90063E3E7002AF3
:1002FC0040F09080A1EB0C044FEA1C481FFA8CF7DD
:10030C000121B4FBF8F64FEA1E4308FB164443EAFE
:10031C00044307FB06F0984208D91CEB030306F1D3
:10032C00FF3402D2984200F2CD8026461C1A1FFAE6
:10033C008EF3B4FBF8F008FB104443EA044300FBD3
:10034C0007F79F4208D91CEB030300F1FF3402D2DC
:10035C009F4200F2B0802046DB1B40EA0640A5E736
:10036C00C1F120068B4022FA06F71F4320FA06FC47
:10037C0004FA01F343EA0C03F44000FA01F8380CD8
:10038C004FEA1349B4FBF0FE1FFA87FC00FB1E4436
:10039C0049EA04440EFB0CF9A14502FA01F20AD910
:1003AC003C190EF1FF3A80F08480A14540F2818027
:1003BC00AEF1020E3C44A4EB09041FFA83F9B4FB22
:1003CC00F0F300FB134449EA044403FB0CFCA44582
:1003DC0007D93C1903F1FF3067D2A44565D9023B1C
:1003EC003C4443EA0E40A0FB0293A4EB0C049C4259
:1003FC00CE469C4651D34ED055B1B8EB0E0364EBB0
:10040C000C0404FA06F6CB401E43CC40C5E900644C
:10041C00002150E7C2F1200320FA03F10CFA02FC90
:10042C0024FA03F394400C434FEA1C4800FA02FEF2
:10043C001FFA8CF7B3FBF8F008FB1031230C43EADE
:10044C00014300FB07F1994208D91CEB030300F1AF
:10045C00FF362CD299422AD9023863445B1AA4B2D3
:10046C00B3FBF8F108FB113344EA034401FB07F337
:10047C00A34208D91CEB040401F1FF3613D2A342AA
:10048C0011D902396444E41A41EA004139E70446BF
:10049C00F0E6084606E7C845AED2B9EB020E63EBB0
:1004AC00070C0138A8E73146EDE7034699E73046DB
:1004BC00D4E7D6467FE7634402384DE70646234629
:1004CC0008460FE7023E634430E700BF704700BFA9
:1004DC0082B000230193064B1A6B42F001021A639F
:1004EC001B6B03F001030193019B02B0704700BF2B
:1004FC000038024072B6FEE700B595B030220021FC
:10050C0008A800F057FC002303930493059306936B
:10051C0007930193194A116C41F080511164126CCC
:10052C0002F080520192019A029315490A6822F452
:10053C00404242F480420A600A6802F4404202924D
:10054C00029A0222089201220B9210220C920E9314
:10055C0008A800F02FF968B90F2303930021049128
:10056C0005910691079103A800F074FB20B915B012
:10057C005DF804FBFFF7BEFFFFF7BCFF003802403D
:10058C000070004008B500F07FF8FFF7B5FFFFF7EB
:10059C009FFFFEE782B0002100910B4B5A6C42F496
:1005AC0080425A645A6C02F480420092009A019183
:1005BC001A6C42F080521A641B6C03F08053019346
:1005CC00019B02B0704700BF00380240FEE7FEE717
:1005DC00FEE7FEE7FEE770477047704708B500F08E
:1005EC006DF808BD70470000DFF834D0FFF7FAFF54
:1005FC000C480D490D4A002302E0D458C450043372
:10060C00C4188C42F9D30A4A0A4C002301E0136047
:10061C000432A242FBD300F0D5FBFFF7B3FF7047C7
:10062C00000003200000002010000020200F000814
:10063C0010000020C8010020FEE7000010B50446A1
:10064C000E4B1A784FF47A73B3FBF2F30C4A106822
:10065C00B0FBF3F000F09AF868B90F2C01D9012027
:10066C000AE0002221464FF0FF3000F07FF8054BE6
:10067C001C60002000E0012010BD00BF0400002021
:10068C00000000200800002008B50B4B1A6842F44B
:10069C0000721A601A6842F480621A601A6842F496
:1006AC0080721A60032000F04FF80F20FFF7C6FF8E
:1006BC00FFF770FF002008BD003C0240034A1168A0
:1006CC00034B1B780B441360704700BF2C000020B9
:1006DC0004000020014B1868704700BF2C0000205C
:1006EC00002808DB0901C9B200F1604000F5614047
:1006FC0080F80013704700F00F000901C9B2014BDC
:10070C001954704714ED00E000B500F00700C0F17B
:10071C00070CBCF1040F28BF4FF0040C031D062B73
:10072C000FD9C31E4FF0FF3E0EFA0CF021EA000168
:10073C0099400EFA03FE22EA0E0241EA02005DF82D
:10074C0004FB0023EEE70000074AD36823F4E063C0
:10075C001B041B0C000200F4E060034343F0BF6376
:10076C0043F40033D360704700ED00E010B504464D
:10077C00054BD868C0F30220FFF7C6FF01462046A0
:10078C00FFF7AEFF10BD00BF00ED00E00138B0F187
:10079C00807F0BD24FF0E0235861054AF02182F89C
:1007AC0023100020986107221A61704701207047BE
:1007BC0000ED00E0002800F0E08170B582B0044646
:1007CC00036813F0010F3BD09F4B9B6803F00C03A5
:1007DC00042B2CD09C4B9B6803F00C03082B21D0D2
:1007EC006368B3F5803F4FD0B3F5A02F52D0964B32
:1007FC001A6822F480321A601A6822F480221A6075
:10080C006368002B50D0FFF765FF05468E4B1B68C5
:10081C0013F4003F14D1FFF75DFF401B6428F5D99A
:10082C000320B1E1884B5B6813F4800FD8D0864B62
:10083C001B6813F4003F03D06368002B00F09F810A
:10084C00236813F0020F54D07F4B9B6813F00C0FEE
:10085C003ED07D4B9B6803F00C03082B33D0E36830
:10086C00002B68D0794B01221A60FFF733FF054645
:10087C00754B1B6813F0020F54D1FFF72BFF401B75
:10088C000228F5D903207FE16F4A136843F48033C3
:10089C001360B5E76C4B1A6842F480221A601A6830
:1008AC0042F480321A60ABE7FFF714FF0546664B43
:1008BC001B6813F4003FC3D0FFF70CFF401B6428E8
:1008CC00F5D9032060E1604B5B6813F4800FC6D14F
:1008DC005D4B1B6813F0020F03D0E368012B40F053
:1008EC005081594A136823F0F803216943EAC10384
:1008FC001360236813F0080F42D063696BB3534B3A
:10090C000122C3F8802EFFF7E5FE05464E4B5B6FC8
:10091C0013F0020F34D1FFF7DDFE401B0228F5D98E
:10092C00032031E1484A136823F0F803216943EAB4
:10093C00C1031360DDE7454B00221A60FFF7CAFEC6
:10094C000546414B1B6813F0020FD2D0FFF7C2FED5
:10095C00401B0228F5D9032016E13C4B0022C3F8BA
:10096C00802EFFF7B7FE0546374B5B6F13F0020F77
:10097C0006D0FFF7AFFE401B0228F5D9032003E198
:10098C00236813F0040F77D02F4B1B6C13F0805F90
:10099C0033D1002301932C4B1A6C42F080521A6411
:1009AC001B6C03F080530193019B0125284B1B68A2
:1009BC0013F4807F23D0A368012B34D0052B38D0BF
:1009CC00214B1A6F22F001021A671A6F22F00402EF
:1009DC001A67A368002B3DD0FFF77CFE06461A4B26
:1009EC001B6F13F0020F46D1FFF774FE801B41F210
:1009FC0088339842F3D90320C6E00025D6E7144A81
:100A0C00136843F480731360FFF764FE0646104BC3
:100A1C001B6813F4807FCED1FFF75CFE801B02288D
:100A2C00F5D90320B0E0084A136F43F001031367B4
:100A3C00CFE7054B1A6F42F004021A671A6F42F0A7
:100A4C0001021A67C5E700BF0038024000004742A8
:100A5C0000700040FFF73EFE0646524B1B6F13F032
:100A6C00020F08D0FFF736FE801B41F28833984204
:100A7C00F3D9032088E0EDB9A369002B00F0838043
:100A8C00484A926802F00C02082A51D0022B17D067
:100A9C00454B00221A66FFF71DFE0446414B1B68AE
:100AAC0013F0007F42D0FFF715FE001B0228F5D98A
:100ABC00032069E03B4A136C23F080531364DBE79B
:100ACC00394B00221A66FFF705FE0546354B1B68AD
:100ADC0013F0007F06D0FFF7FDFD401B0228F5D96F
:100AEC00032051E0E369226A1343626A43EA8213EA
:100AFC00A26A5208013A43EA0243E26A43EA0263F9
:100B0C00284A5360284B01221A66FFF7E3FD04467E
:100B1C00244B1B6813F0007F06D1FFF7DBFD001B95
:100B2C000228F5D903202FE000202DE000202BE037
:100B3C00012B2BD01B4B5B6803F48001E2699142C3
:100B4C0026D103F03F02216A8A4223D1616A47F61B
:100B5C00C0721A40B2EB811F1ED103F44031A26A5D
:100B6C005208013AB1EB024F18D103F07063E26AFC
:100B7C00B3EB026F14D1002006E001207047012076
:100B8C0002E0012000E0002002B070BD0120FBE774
:100B9C000120F9E70120F7E70120F5E70120F3E751
:100BAC000120F1E7003802400000474208B5264B0F
:100BBC009B6803F00C03042B41D0082B41D1224B32
:100BCC005A6802F03F025B6813F4800F12D01E4B80
:100BDC005968C1F388111D480023A1FB0001FFF7E0
:100BEC00FFFA194B5B68C3F3014301335B00B0FBA5
:100BFC00F3F027E0144B5868C0F388104FEA401C00
:100C0C00BCEB000C6EEB0E0E4FEA8E1343EA9C63AA
:100C1C004FEA8C11B1EB0C0163EB0E03DB0043EAE2
:100C2C005173C90011EB000C43F10003990200232E
:100C3C004FEA8C2041EA9C51FFF7D2FAD1E70348E6
:100C4C0000E0034808BD00BF0038024040787D0139
:100C5C000024F400002800F09B8070B50D4604467B
:100C6C004F4B1B6803F00F038B4208D2CBB24C4A9C
:100C7C001370136803F00F038B4240F08B802368D2
:100C8C0013F0020F17D013F0040F04D0454A9368E9
:100C9C0043F4E0539360236813F0080F04D0414AE7
:100CAC00936843F4604393603E4A936823F0F003E7
:100CBC00A1680B439360236813F0010F32D0636873
:100CCC00012B21D09A1E012A25D9364A126812F01E
:100CDC00020F61D033498A6822F0030213438B6000
:100CEC00FFF7F8FC06462F4B9B6803F00C03626879
:100CFC00B3EB820F16D0FFF7EDFC801B41F288336B
:100D0C009842F0D9032042E0264A126812F4003FC0
:100D1C00E0D101203BE0234A126812F0007FD9D1C8
:100D2C00012034E01E4B1B6803F00F03AB4207D9C4
:100D3C00EAB21B4B1A701B6803F00F03AB422DD1A8
:100D4C00236813F0040F06D0164A936823F4E0537B
:100D5C00E1680B439360236813F0080F07D0114A26
:100D6C00936823F46043216943EAC1039360FFF75E
:100D7C001DFF0C4B9B68C3F303130B4AD35CD84089
:100D8C000A4B18600A4B1868FFF758FC002070BD1E
:100D9C00012070470120FAE70120F8E70120F6E76F
:100DAC00003C024000380240FC0E0008000000200D
:100DBC000800002002440346934200D1704703F818
:100DCC00011BF9E770B50D4D0D4C641BA4100026EA
:100DDC00A64209D10B4D0C4C00F07EF8641BA410FC
:100DEC000026A64205D170BD55F8043B9847013644
:100DFC00EEE755F8043B98470136F2E7140F00086C
:100E0C00140F0008140F00081C0F000870477047DF
:100E1C00024B13B1024800F005B870470000000007
:100E2C003D0E0008002301461A46184600F014B87F
:100E3C0038B5074D074C641BA4101CB9BDE83840ED
:100E4C0000F050B8013C55F824309847F5E700BF46
:100E5C001C0F0008200F00082DE9F047DFF86CA0EC
:100E6C000646DAF8000098460F469146FFF7CEFF8B
:100E7C00174B1C680CB9174C1C606568DAF800003D
:100E8C001F2D05DDFFF7C3FF4FF0FF30BDE8F087E6
:100E9C009EB104EB85010122C1F88890D4F8883109
:100EAC00AA401343C4F88831022EC1F8088102BF4E
:100EBC00D4F88C311343C4F88C316B1C023563604D
:100ECC0044F82570FFF7A3FF0020DFE70C0000209B
:100EDC003400002038000020F8B500BFF8BC08BC76
:100EEC009E467047F8B500BFF8BC08BC9E467047DC
:100EFC0000000000000000000102030406070809BE
:080F0C0010F3FF7F010000005B
:080F14001D0E0008D1010008C8
:040F1C00AD0100081B
:100F20000024F40001000000100000003000002048
:04000005080005F5F5
:00000001FF
